S01200004F48432D5377697463682E7372656399
S113000019C0ACC332C031C030C02FC02EC02DC007
S11300102CC02BC02AC029C028C027C026C025C098
S1130020C4C423C022C02AC1D2C01FC01EC01DC068
S11300301CC01BC011241FBECFEFD4E0DEBFCDBF58
S113004011E0A0E0B1E0E0EAF1E102C005900D9218
S1130050AE37B107D9F722E0AEE7B1E001C01D9297
S1130060A039B207E1F7D8D399C8CACF89E190E0A3
S11300709093C5008093C4008EE08093C2000895DD
S1130080E1ECF0E08081886480830895E0910601CA
S1130090F0910701819382E0E938F80710F0E9E86C
S11300A0F1E02091060130910701809108019091BF
S11300B009012817390729F4A1ECB0E08C9180627A
S11300C08C93F0930701E093060180918501909150
S11300D08601A0918701B09188010196A11DB11DEF
S11300E08093850190938601A0938701B093880142
S11300F008950F931F93CF93DF93EA01E1ECF0E0AF
S113010020812F7B20838C01060F171F209739F045
S1130110F80181918F01BADF21972097C9F7E1ECAB
S1130120F0E0808180648083DF91CF911F910F91F3
S11301300895CF93DF93EC01E1ECF0E080818F7BB5
S113014080838881882329F02196A0DF89918111F9
S1130150FCCFE1ECF0E0808180648083DF91CF917B
S11301600895E0910801F0910901809106019091B0
S11301700701E817F90751F180818093C600809147
S1130180080190910901019622E08938920728F428
S1130190909309018093080106C089E891E0909347
S11301A00901809308018091850190918601A091B5
S11301B08701B09188010197A109B1098093850154
S11301C090938601A0938701B093880108951F92AC
S11301D00F920FB60F9211242F933F934F935F9377
S11301E06F937F938F939F93AF93BF93EF93FF93FB
S11301F0B8DFFF91EF91BF91AF919F918F917F9164
S11302006F915F914F913F912F910F900FBE0F907F
S11302101F901895E0910801F09109018081809365
S1130220C6008091080190910901019622E0893865
S1130230920728F4909309018093080106C089E885
S113024091E09093090180930801E1ECF0E0808152
S11302508F7D80838091850190918601A091870193
S1130260B09188010197A109B10980938501909308
S11302708601A0938701B093880108951F920F927D
S11302800FB60F9211242F933F934F935F936F9365
S11302907F938F939F93AF93BF93EF93FF93BADFB3
S11302A0FF91EF91BF91AF919F918F917F916F914A
S11302B05F914F913F912F910F900FBE0F901F9020
S11302C0189584B1837C84B984B18C6284B980E547
S11302D08CBD81E08DBD0895442381F0282FA62F85
S11302E0B72FE82FF92F81918EBD0DB407FEFDCFF6
S11302F08EB58D938E2F821B8417A8F308956623E1
S113030061F0282FE82FF92F81918EBD0DB407FEDF
S1130310FDCF8E2F821B8617B8F308958EBD0DB4C2
S113032007FEFDCF8EB50895299882EEF7DF299A4E
S11303300895299881EEF2DF299A0895209A219A46
S11303402898299A0895CF93C62F29988062E6DFCA
S11303508C2FE4DF299ACF910895CF93DF93EEDFBA
S1130360B0DFE2DFE6DF60E787E0EDDF81E090E029
S113037026D3EC018FE088836FE080E0E4DFCE01D8
S1130380B6D381E090E01BD3EC018AE288836AE271
S113039085E0D9DFCE01ABD381E090E010D3EC014E
S11303A086E0888366E0CFDFCE01A1D381E090E0D0
S11303B006D3EC016881607C6062688381E1C3DFFD
S11303C0688182E1C0DFCE0192D3289ADF91CF9178
S11303D008951F93CF93DF93EC01162F299881E69C
S11303E09DDF412FBE01CE0177DF299A60E487E0CB
S11303F0AADFDF91CF911F9108951F93CF93DF93CD
S1130400EB01142F2998806289DF612FCE0177DFF9
S1130410299ADF91CF911F9108951F93CF93DF9372
S1130420EB01142F29987ADF412FBE01CE0154DF4E
S1130430299ADF91CF911F910895CF93DF931F9253
S1130440CDB7DEB741E0BE016F5F7F4FE6DF898144
S11304500F90DF91CF91089587E1EFDF8095817050
S1130460089580E0EADF8F77682F636080E06BDFB8
S1130470289A0895299852DF299A08958FEFFACF80
S11304800895009789F09093820180938101880FE9
S1130490991F95D29C01909384018093830181E0FC
S11304A0232B19F080E0089580E00895CF92DF9225
S11304B0EF92FF920F931F93CF93DF93EC016B01A5
S11304C07A01122F8091810190918201C817D90776
S11304D0E0F485E090E073D2FC010097C1F0D18292
S11304E0C082F382E282848110FB80F900FB81F9EF
S11304F08483CC0FDD1F8091830190918401C80F08
S1130500D91FF983E88380E003C082E001C081E061
S1130510DF91CF911F910F91FF90EF90DF90CF90DB
S11305200895DB01E0918101F09182018E179F070C
S1130530F0F4880F991FE0918301F0918401E80F92
S1130540F91F0190F081E02D309799F08281938119
S1130550B901640F751F8617970768F06081718170
S1130560640F751FA901CD0151D380E0089582E085
S1130570089583E0089584E00895EF92FF920F9325
S11305801F93CF93DF931F92CDB7DEB77C018FE02B
S113059091E0CFDD85E090E012D28C0125E030E0DF
S11305A040E050E0BC01C701BCDF45E050E060E042
S11305B070E0C8019EDD89E691E0BBDDC80197D2F9
S11305C0EF2889F4198221E030E040E050E0BE01D8
S11305D06F5F7F4F80E090E0A4DF8981882311F072
S11305E0409A01C040980F90DF91CF911F910F91D5
S11305F0FF90EF900895CF93DF93EC0180918101F8
S113060090918201C817D90730F5E0918301F091E8
S11306108401CE01880F991FE80FF91F0190F08122
S1130620E02D3097D1F0848181FF19C082819381BC
S113063082179307B0F0640F751FA901808191811F
S1130640E5D2E0918902F0918A02309761F0CE01FF
S1130650099580E009C082E007C083E005C085E019
S113066003C084E001C080E0DF91CF910895EF9250
S1130670FF921F93CF93DF93EC01162F80918B028F
S11306808E7F8D7F80938B0282E08093690081E06E
S11306908DBB662309F1663008F5E62EF12CC701FF
S11306A08ED19093800180937F010097C9F0A701B8
S11306B0BE01ACD210937E0150DE2FEF81EE94E0A8
S11306C0215080409040E1F700C00000412FBE015E
S11306D08BE093DE80E005C084E603C085E601C0BC
S11306E081E0DF91CF911F91FF90EF900895FF92E9
S11306F00F931F93CF93DF9380918B0281FF25C0CB
S113070080E290E05CD1EC01009709F160E261DEE7
S1130710FD800E811F81A0DE90918B0280FB91F9F8
S113072090938B02F5FE0CC02F2D2F7130E040E02A
S113073050E0BE01685F7F4FC8015DDF182F01C024
S113074010E0CE01D4D1812F03C080E001C081E04C
S1130750DF91CF911F910F91FF9008951F920F92F7
S11307600FB60F9211242F933F934F935F936F9380
S11307707F938F939F93AF93BF93CF93EF93FF9305
S11307807DDEC82F85FF06C06CDE80918B028E7FD4
S113079080938B02C6FF05C080918B028260809398
S11307A08B026C2F607387E0CEDDFF91EF91CF91C8
S11307B0BF91AF919F918F917F916F915F914F9175
S11307C03F912F910F900FBE0F901F901895FF929D
S11307D00F931F93CF93DF93C82F162F862F90E08C
S11307E0EED0F82E092F412F682F792F8C2F15DE8C
S11307F0112331F0CF2DD02F899148DC1150E1F72E
S11308008F2D902F74D189E691E093DCDF91CF9105
S11308101F910F91FF900895CF93DF9300D000D0E4
S11308201F92CDB7DEB781E087B994E095BD809380
S11308306E001CDC25DC789482E090E022DE81E00E
S113084090E0BDD001E021E041E050E0BC0180E057
S113085090E02CDEF82E8823D1F080E190E0AFD038
S1130860082F192F1F92FF922CE131E03F932F9311
S11308709F938F93D4D1802F912F5BDC802F912F66
S113088036D10F900F900F900F900F900F908AE039
S113089090E095D001E021E04AE050E0BC0181E025
S11308A090E004DEF82E8823D1F080E190E087D038
S11308B0082F192F1F92FF922CE131E03F932F93C1
S11308C09F938F93ACD1802F912F33DC802F912F66
S11308D00ED10F900F900F900F900F900F908DEB03
S11308E092E090938A02809389028BE291E021DC6A
S11308F085E0EAE0F1E0DE01119601900D928A951F
S1130900E1F78CE391E015DC65E0CE010196AFDE02
S11309108BE691E00EDC10E061E0812F58DF1F5F71
S11309201A30D1F765E08AE052DF65E08BE04FDFF3
S11309301CE061E0812F4BDF1F5F1031D1F765E0D0
S113094080E145DF11E161E0812F41DF1F5F183154
S1130950D1F761E08CE13BDF61E08DE138DF00E25B
S113096011E083B7817F83BF83B7816083BF88959C
S1130970BEDEF82E8823A9F380E190E020D0D82EA3
S1130980E92E1F92FF921F930F939F938F9347D14A
S11309908D2D9E2DCEDB8D2D9E2DA9D00F900F90E9
S11309A00F900F900F900F90DCCF1F920F920FB605
S11309B00F9211240F900FBE0F901F901895CF9394
S11309C0DF938230910510F482E090E0E0918E0292
S11309D0F0918F0220E030E0A0E0B0E0309739F1F0
S11309E04081518148175907B8F04817590771F4E5
S11309F082819381109729F013969C938E9312977A
S1130A002CC090938F0280938E0227C0211531054C
S1130A1031F04217530718F0A901DB0101C0EF01BF
S1130A209A01BD01DF010280F381E02DD7CF2115AA
S1130A303105F9F0281B390B2430310580F48A8103
S1130A409B816115710521F0FB019383828304C0AE
S1130A5090938F0280938E02FE01329644C0FE0171
S1130A60E20FF31F81939193225031093983288334
S1130A703AC020918C0230918D02232B41F42091B5
S1130A8002013091030130938D0220938C02209156
S1130A900001309101012115310541F42DB73EB714
S1130AA04091040150910501241B350BE0918C0207
S1130AB0F0918D02E217F307A0F42E1B3F0B2817C9
S1130AC0390778F0AC014E5F5F4F2417350748F0C3
S1130AD04E0F5F1F50938D0240938C02819391932C
S1130AE002C0E0E0F0E0CF01DF91CF910895CF9311
S1130AF0DF93009709F487C0FC01329713821282B6
S1130B00C0918E02D0918F02209781F4208131818F
S1130B10280F391F80918C0290918D0282179307C0
S1130B2079F5F0938D02E0938C026DC0DE0120E034
S1130B3030E0AE17BF0750F412964D915C911397B5
S1130B409D014115510509F1DA01F3CFB383A28365
S1130B5040815181840F951F8A179B0771F48D91F1
S1130B609C911197840F951F02969183808312960E
S1130B708D919C911397938382832115310529F4D8
S1130B80F0938F02E0938E023EC0D9011396FC933A
S1130B90EE9312974D915D91A40FB51FEA17FB07D1
S1130BA079F480819181840F951F0296D901119661
S1130BB09C938E938281938113969C938E93129728
S1130BC0E0E0F0E08A819B81009719F0FE01EC01DE
S1130BD0F9CFCE01029628813981820F931F20918B
S1130BE08C0230918D022817390769F4309729F463
S1130BF010928F0210928E0202C013821282D0933E
S1130C008D02C0938C02DF91CF910895FB01DC012A
S1130C1002C001900D9241505040D8F70895AEE0C3
S1130C20B0E0E4E1F6E091C20D891E8986E08C8390
S1130C301A8309838FEF9FE79E838D83AE01475EFE
S1130C405F4F6F89788DCE01019608D0EF81F885CA
S1130C50E00FF11F10822E96E4E093C2ACE0B0E006
S1130C60E3E3F6E064C27C016B018A01FC011782B4
S1130C701682838181FFB0C1CE0101964C01F70138
S1130C809381F60193FD859193FF81916F018823F0
S1130C9009F49EC1853239F493FD859193FF8191C6
S1130CA06F01853221F4B70190E0B1D1E8CF512C26
S1130CB0312C20E02032A0F48B3269F030F4803201
S1130CC059F0833269F420612CC08D3239F08033BD
S1130CD039F4216026C02260246023C0286021C02A
S1130CE027FD27C030ED380F3A3078F426FF06C0D0
S1130CF0FAE05F9E300D1124532E13C08AE0389E13
S1130D00300D1124332E20620CC08E3221F426FDC6
S1130D105FC1206406C08C3611F4206802C0883696
S1130D2041F4F60193FD859193FF81916F01811147
S1130D30C1CF982F9F7D9554933028F40C5F1F4F9B
S1130D40FFE3F9830DC0833631F0833771F08335C7
S1130D5009F057C021C0F801808189830E5F1F4FBD
S1130D6044244394512C540114C03801F2E06F0E12
S1130D70711CF801A080B18026FF03C0652D70E0CE
S1130D8002C06FEF7FEFC5012C8736D12C018301A0
S1130D902C852F77222E16C03801F2E06F0E711CBD
S1130DA0F801A080B18026FF03C0652D70E002C069
S1130DB06FEF7FEFC5012C8714D12C012C8520689F
S1130DC0222E830123FC19C0832D90E04816590676
S1130DD0A0F4B70180E290E01AD13A94F5CFF5017E
S1130DE027FC859127FE81915F01B70190E00FD127
S1130DF031103A94F1E04F1A51084114510479F733
S1130E00DEC0843611F0893631F5F80127FF07C0BA
S1130E1060817181828193810C5F1F4F08C0608162
S1130E207181882777FD8095982F0E5F1F4F2F764D
S1130E30B22E97FF09C090958095709561957F4F6C
S1130E408F4F9F4F2068B22E2AE030E0A40111D1C9
S1130E50A82EA81843C0853729F42F7EB22E2AE085
S1130E6030E025C0F22FF97FBF2E8F36C1F018F481
S1130E70883579F0ADC0803719F0883721F0A8C0E3
S1130E802F2F2061B22EB4FE0DC08B2D8460B82E9E
S1130E9009C024FF0AC09F2F9660B92E06C028E01F
S1130EA030E005C020E130E002C020E132E0F8018A
S1130EB0B7FE07C060817181828193810C5F1F4FEF
S1130EC006C06081718180E090E00E5F1F4FA40135
S1130ED0D0D0A82EA818FB2DFF77BF2EB6FE0BC0CE
S1130EE02B2D2E7FA51450F4B4FE0AC0B2FC08C00A
S1130EF02B2D2E7E05C07A2C2B2D03C07A2C01C0FD
S1130F00752C24FF0DC0FE01EA0DF11D8081803394
S1130F1011F4297E09C022FF06C07394739404C09F
S1130F20822F867809F0739423FD12C020FF06C037
S1130F305A2C731418F4530C5718732C731460F44C
S1130F40B70180E290E02C8762D073942C85F6CFB1
S1130F50731410F4371801C0312C24FF11C0B701E9
S1130F6080E390E02C8753D02C8522FF16C021FF0C
S1130F7003C088E590E002C088E790E0B7010CC0A8
S1130F80822F867851F021FD02C080E201C08BE2FD
S1130F9027FD8DE2B70190E03AD0A51430F4B701F3
S1130FA080E390E034D05A94F8CFAA94F401EA0D87
S1130FB0F11D8081B70190E02AD0A110F6CF332033
S1130FC009F45DCEB70180E290E021D03A94F7CFE6
S1130FD0F7018681978102C08FEF9FEF2C96E2E1A3
S1130FE0C2C0FC010590615070400110D8F7809593
S1130FF090958E0F9F1F0895FC01615070400190E1
S11310000110D8F7809590958E0F9F1F08950F9328
S11310101F93CF93DF93182F092FEB018B8181FD51
S113102003C08FEF9FEF20C082FF10C04E815F810D
S11310302C813D81421753077CF4E881F9819F019B
S11310402F5F3F4F39832883108306C0E885F985D5
S1131050812F0995892B29F72E813F812F5F3F4FDF
S11310603F832E83812F902FDF91CF911F910F917A
S11310700895FA01AA27283051F1203181F1E8942A
S11310806F936E7F6E5F7F4F8F4F9F4FAF4FB1E077
S11310903ED0B4E03CD0670F781F891F9A1FA11D72
S11310A0680F791F8A1F911DA11D6A0F711D811D73
S11310B0911DA11D20D009F468943F912AE0269F38
S11310C011243019305D3193DEF6CF010895462F97
S11310D04770405D4193B3E00FD0C9F7F6CF462F78
S11310E04F70405D4A3318F0495D31FD40524193E1
S11310F002D0A9F7EACFB4E0A6959795879577959E
S11311006795BA95C9F700976105710508959B0124
S1131110AC010A2E06945795479537952795BA95AD
S1131120C9F7620F731F841F951FA01D08952F9286
S11311303F924F925F926F927F928F929F92AF9263
S1131140BF92CF92DF92EF92FF920F931F93CF93B0
S1131150DF93CDB7DEB7CA1BDB0B0FB6F894DEBF47
S11311600FBECDBF09942A88398848885F846E846D
S11311707D848C849B84AA84B984C884DF80EE80B7
S1131180FD800C811B81AA81B981CE0FD11D0FB6C0
S1131190F894DEBF0FBECDBFED010895F894FFCFE4
S11311A000009002200089018901424242424243E8
S11311B0414C4C4241434B5F52583A005245475FC1
S11311C04552524F523A2025750A00494E49545F00
S11311D0434F52453A20444F4E450A00494E495424
S11311E05F52454D4F54452E52585F414444523A44
S11311F02030783432203078343220307834322041
S11312003078343220307834320A00494E49545F01
S111121052454D4F54453A20444F4E450A0076
S9030000FC
